:020000040800F2
:1000000000000220A91A0008451800084718000837
:10001000491800084B1800084D180008000000009F
:100020000000000000000000000000004F18000861
:100030005118000800000000531800085518000867
:10004000F91A0008F91A0008F91A0008F91A000844
:10005000F91A0008F91A0008F91A0008F91A000834
:10006000F91A0008F91A0008F91A00085D180008C2
:10007000F91A0008F91A0008F91A0008F91A000814
:10008000F91A0008F91A0008F91A0008F91A000804
:10009000F91A0008F91A0008F91A0008F91A0008F4
:1000A000F91A0008F91A0008F91A0008F91A0008E4
:1000B000F91A0008F91A0008F91A0008F91A0008D4
:1000C000F91A0008F91A0008F91A0008F91A0008C4
:1000D000F91A0008F91A0008F91A0008F91A0008B4
:1000E000F91A0008F91A0008F91A0008F91A0008A4
:1000F000F91A0008F91A0008F91A0008F91A000894
:10010000F91A0008F91A0008F91A0008F91A000883
:10011000F91A0008F91A0008F91A0008F91A000873
:10012000F91A0008F91A0008F91A0008F91A000863
:10013000F91A0008F91A0008F91A0008F91A000853
:10014000F91A0008F91A0008F91A0008F91A000843
:10015000F91A0008F91A0008F91A0008F91A000833
:10016000F91A0008F91A0008F91A0008F91A000823
:10017000F91A0008F91A0008F91A0008F91A000813
:10018000F91A0008F91A0008F91A0008F91A000803
:10019000F91A000800000000F91A0008F91A00080E
:1001A000F91A0008F91A0008F91A0008F91A0008E3
:1001B000F91A0008F91A0008F91A0008F91A0008D3
:1001C000F91A0008F91A0008F91A0008F91A0008C3
:0801D000F91A0008F91A0008F1
:1002000081F0004102E000BF83F0004330B54FEAC7
:1002100041044FEA430594EA050F08BF90EA020F34
:100220001FBF54EA000C55EA020C7FEA645C7FEAC7
:10023000655C00F0E2804FEA5454D4EB5555B8BFEA
:100240006D420CDD2C4480EA020281EA030382EA5B
:10025000000083EA010180EA020281EA0303362DED
:1002600088BF30BD11F0004F4FEA01314FF4801CC0
:100270004CEA113102D0404261EB410113F0004FD2
:100280004FEA03334CEA133302D0524263EB430389
:1002900094EA050F00F0A780A4F10104D5F1200E27
:1002A0000DDB02FA0EFC22FA05F2801841F1000182
:1002B00003FA0EF2801843FA05F359410EE0A5F156
:1002C00020050EF1200E012A03FA0EFC28BF4CF087
:1002D000020C43FA05F3C01851EBE37101F000453D
:1002E00007D54FF0000EDCF1000C7EEB00006EEB4A
:1002F0000101B1F5801F1BD3B1F5001F0CD34908D4
:100300005FEA30004FEA3C0C04F101044FEA44522A
:1003100012F5800F80F09A80BCF1004F08BF5FEAB1
:10032000500C50F1000041EB045141EA050130BD91
:100330005FEA4C0C404141EB0101013C28BFB1F5A3
:10034000801FE9D291F0000F04BF01460020B1FAEE
:1003500081F308BF2033A3F10B03B3F120020CDAC1
:100360000C3208DD02F1140CC2F10C0201FA0CF09F
:1003700021FA02F10CE002F11402D8BFC2F1200C04
:1003800001FA02F120FA0CFCDCBF41EA0C019040BA
:10039000E41AA2BF01EB0451294330BD6FEA040403
:1003A0001F3C1CDA0C340EDC04F11404C4F12002EE
:1003B00020FA04F001FA02F340EA030021FA04F300
:1003C00045EA030130BDC4F10C04C4F1200220FA57
:1003D00002F001FA04F340EA0300294630BD21FA95
:1003E00004F0294630BD94F0000F83F4801306BF5B
:1003F00081F480110134013D4EE77FEA645C18BF4F
:100400007FEA655C29D094EA050F08BF90EA020FE5
:1004100005D054EA000C04BF1946104630BD91EADD
:10042000030F1EBF0021002030BD5FEA545C05D1E0
:100430004000494128BF41F0004130BD14F580041F
:100440003CBF01F5801130BD01F0004545F0FE4193
:1004500041F470014FF0000030BD7FEA645C1ABFC8
:10046000194610467FEA655C1CBF0B46024650EAFF
:10047000013406BF52EA033591EA030F41F400212B
:1004800030BD00BF90F0000F04BF0021704730B5B1
:100490004FF4806404F132044FF000054FF0000186
:1004A00050E700BF90F0000F04BF0021704730B547
:1004B0004FF4806404F1320410F0004548BF40421C
:1004C0004FF000013EE700BF42004FEAE2014FEA71
:1004D00031014FEA02701FBF12F07F4393F07F4F4C
:1004E00081F06051704732F07F4208BF704793F04F
:1004F0007F4F04BF41F40021704730B54FF4607462
:1005000001F0004521F000411CE700BF50EA010264
:1005100008BF704730B54FF000050AE050EA01020D
:1005200008BF704730B511F0004502D5404261EB7D
:1005300041014FF4806404F132045FEA915C3FF4BE
:10054000D8AE4FF003025FEADC0C18BF03325FEA5B
:10055000DC0C18BF033202EBDC02C2F1200300FA0C
:1005600003FC20FA02F001FA03FE40EA0E0021FA31
:1005700002F11444BDE600BF4FF0FF3C06E000BFAF
:100580004FF0010C02E000BF4FF0010C4DF804CD1C
:100590004FEA410C7FEA6C5C4FEA430C18BF7FEADC
:1005A0006C5C1BD001B050EA410C0CBF52EA430C0A
:1005B00091EA030F02BF90EA020F0020704710F18A
:1005C000000F91EA030F58BF994208BF90422CBF19
:1005D000D8176FEAE37040F0010070474FEA410C12
:1005E0007FEA6C5C02D150EA013C07D14FEA430C30
:1005F0007FEA6C5CD6D152EA033CD3D05DF8040BA1
:10060000704700BF8446104662468C4619466346D2
:1006100000E000BF01B5FFF7B7FF002848BF10F1A9
:10062000000F01BD4DF808EDFFF7F4FF0CBF0120EE
:1006300000205DF808FB00BF4DF808EDFFF7EAFF6A
:1006400034BF012000205DF808FB00BF4DF808ED25
:10065000FFF7E0FF94BF012000205DF808FB00BF1A
:100660004DF808EDFFF7CEFF94BF012000205DF8A4
:1006700008FB00BF4DF808EDFFF7C4FF34BF0120B1
:1006800000205DF808FB00BF00F1340191E838005C
:100690009C46A6464CF8045D90E8FF0FE54600BD79
:1006A00090EC210B704700BF80EC210B704700BF1E
:1006B00090EC200B704700BF80EC200B704700BF10
:1006C000D0EC200B704700BFC0EC200B704700BF80
:1006D000F0EC0201F0EC0211F0EC0221F0EC02313E
:1006E000F0EC0241F0EC0251F0EC0261F0EC02712E
:1006F000F0EC0281F0EC0291F0EC02A1F0EC02B11E
:10070000F0EC02C1F0EC02D1F0EC02E1F0EC02F10D
:10071000704700BFE0EC0201E0EC0211E0EC0221C6
:10072000E0EC0231E0EC0241E0EC0251E0EC02616D
:10073000E0EC0271E0EC0281E0EC0291E0EC02A15D
:10074000E0EC02B1E0EC02C1E0EC02D1E0EC02E14D
:10075000E0EC02F1704700BFB0FC0181B0FC0191F8
:10076000B0FC01A1B0FC01B1704700BFA0FC018149
:10077000A0FC0191A0FC01A1A0FC01B1704700BF49
:10078000EC4600B52DE900502DE9FF1F4FF00003A6
:100790002DE90C0001A90CF017FBDDF840E012B0C8
:1007A000704700BFEC4600B52DE900502DE9FF1F52
:1007B0004FF000032DE90C0001A90CF043FBDDF81C
:1007C00040E012B0704700BFEC4600B52DE9005084
:1007D0002DE9FF1F4FF000032DE90C0001A90CF0DB
:1007E00053FBDDF840E012B0704700BFEC4600B5A7
:1007F0002DE900502DE9FF1F4FF000032DE90C00FB
:1008000001AB0CF017FBDDF840E012B0704700BF01
:10081000EC4600B52DE900502DE9FF1F4FF0000315
:100820002DE90C0001AA0CF093FBDDF840E012B0BA
:10083000704700BF00000000000000000000000042
:1008400002780B78012A28BF9A4240F0D8806DE9DF
:10085000044540EA0104CDE902676FF0000C4FEA5D
:1008600044721AB380EA010414F0070F6BD100F050
:10087000070420F0070004F0030521F007014FEA08
:10088000C505F0E8042314F0040FF1E804670CFA3E
:1008900005F462EA040266EA04060BD063EA040384
:1008A000624667EA0407664604E000BFF0E80423F6
:1008B000F1E8046782FA4CF582EA0604A4FA8CF4A3
:1008C0006CBB83FA4CF583EA0705A5FA8CF595B95C
:1008D00050E9022351E9026782FA4CF582EA0604E4
:1008E000A4FA8CF483FA4CF583EA0705A5FA8CF593
:1008F0002543DBD09CB92DBAB5FA85F424F0070462
:1009000027FA04F1DDE9026723FA04F303F0FF009C
:1009100001F0FF01FDE80445A0EB0100704724BA97
:10092000B4FA84F424F0070426FA04F1DDE902673E
:1009300022FA04F202F0FF0001F0FF01FDE8044595
:10094000A0EB0100704714F0030F3CD110F003043A
:1009500028D150F8082B51F8083B82FA4CF582EA6E
:100960000305A5FA8CF55DB950F8042C51F8043C48
:1009700082FA4CF582EA0305A5FA8CF5002DE8D041
:100980002DBAB5FA85F424F0070423FA04F122FA0B
:1009900004F202F0FF0001F0FF01FDE80445A0EBC6
:1009A000010070474FEAC40420F0030050F8082B00
:1009B00021F0030151F8083B0CFA04F462EA040246
:1009C00063EA0403C9E710F003041DD0A1EB04019E
:1009D00020F00300E40750F8042B06D012D28B78E5
:1009E0005FFAA2F4E41A06D12BB1CB785FFAB2F425
:1009F000E41A00D133B920465DF8104B7047A2EBE2
:100A00000300704701F1040150F8042BCC0721F0DA
:100A1000030151F8043B48D824D222F07F4482FAE3
:100A20004CF594EA1325A5FA8CF50AD165B951F86D
:100A3000043B84EA0204B4EB036F0ED150F8042B9C
:100A4000EBE74FEA132355E035F07F454DD10878A9
:100A5000FDE80445C0F1000070474FEA126203F060
:100A6000FF0347E002EA1C4482FA4CF594EA13457E
:100A7000A5FA8CF50AD165B951F8043B84EA020461
:100A8000B4EB034F0CD150F8042BEBE74FEA1343C0
:100A900030E015EA1C4528D10B884FEA124229E0C4
:100AA0004FEA124203EA1C4324E002F0FF0482FAF8
:100AB0004CF594EA1365A5FA8CF50AD165B951F89D
:100AC000043B84EA0204B4EB032F09D150F8042B51
:100AD000EBE74FEA13630DE015F0FF0F05D10B684C
:100AE0004FEA122223F07F4304E04FF00000FDE8BC
:100AF0000445704712BA1BBA82FA4CF482EA030426
:100B0000A4FA8CF5B5FA85F402FA04F203FA04F3B8
:100B10004FEA1260FDE80445A0EB1360704700BF88
:100B200001F0FF01102A2BDB10F0070F08D010F89E
:100B3000013B013A8B422DD010F0070F42B3F6D1A2
:100B4000F0B441EA012141EA014122F007047FF0BB
:100B500000070023F0E80256083C85EA010586EA12
:100B6000010685FA47F5A3FA87F586FA47F6A5FA4E
:100B700087F68EB9EED1F0BC01F0FF0102F007025A
:100B800032B110F8013B013A83EA010313B1F8D105
:100B90000020704701387047002D06BF35460338E6
:100BA000073815F0010F07D1013015F4807F02BF1F
:100BB000013015F4C03F0130F0BC0138704700BF70
:100BC000844641EA000313F003036DD1403A41D358
:100BD00051F8043B40F8043B51F8043B40F8043B17
:100BE00051F8043B40F8043B51F8043B40F8043B07
:100BF00051F8043B40F8043B51F8043B40F8043BF7
:100C000051F8043B40F8043B51F8043B40F8043BE6
:100C100051F8043B40F8043B51F8043B40F8043BD6
:100C200051F8043B40F8043B51F8043B40F8043BC6
:100C300051F8043B40F8043B51F8043B40F8043BB6
:100C400051F8043B40F8043B51F8043B40F8043BA6
:100C5000403ABDD2303211D351F8043B40F8043B46
:100C600051F8043B40F8043B51F8043B40F8043B86
:100C700051F8043B40F8043B103AEDD20C3205D356
:100C800051F8043B40F8043B043AF9D2043208D04E
:100C9000D2071CBF11F8013B00F8013B01D30B88C0
:100CA00003806046704700BF082A13D38B078DD09E
:100CB00010F003038AD0C3F10403D21ADB071CBF70
:100CC00011F8013B00F8013B80D331F8023B20F8DA
:100CD000023B7BE7043AD9D3013A11F8013B00F813
:100CE000013BF9D20B7803704B7843708B7883709B
:100CF0006046704700000000000000000000000097
:100D000030B490F800F020F007016FF0000C10F004
:100D1000070491F820F040F048804FF000046FF095
:100D20000700D1E9002391F840F000F1080082FAB1
:100D30004CF2A4FA8CF283FA4CF3A2FA8CF34BBB7C
:100D4000D1E9022382FA4CF200F10800A4FA8CF2F5
:100D500083FA4CF3A2FA8CF3E3B9D1E9042382FAC3
:100D60004CF200F10800A4FA8CF283FA4CF3A2FAD8
:100D70008CF37BB9D1E9062301F1200182FA4CF210
:100D800000F10800A4FA8CF283FA4CF3A2FA8CF377
:100D9000002BC6D0002A04BF04301A4612BAB2FA99
:100DA00082F200EBD20030BC7047D1E9002304F09E
:100DB0000305C4F100004FEAC50514F0040F91F8D3
:100DC00040F00CFA05F562EA05021CBF63EA050370
:100DD00062464FF00004AAE770B54FF0FF0C4CF4E8
:100DE000E06C1CEA11541DBF1CEA135594EA0C0F69
:100DF00095EA0C0F00F0DEF82C4481EA030621EAA4
:100E00004C5123EA4C5350EA013518BF52EA0335DE
:100E100041F4801143F4801338D0A0FB02CE4FF090
:100E20000005E1FB02E506F00042E0FB03E54FF0C0
:100E30000006E1FB03569CF0000F18BF4EF0010EB8
:100E4000A4F1FF04B6F5007F64F5407404D25FEAB4
:100E50004E0E6D4146EB060642EAC62141EA555167
:100E60004FEAC52040EA5E504FEACE2EB4F1FD0CA9
:100E700088BFBCF5E06F1ED8BEF1004F08BF5FEA27
:100E8000500E50F1000041EB045170BD06F00046D9
:100E900046EA010140EA020081EA0301B4EB5C0486
:100EA000C2BFD4EB0C0541EA045170BD41F480117E
:100EB0004FF0000E013C00F3AB8014F1360FDEBFA3
:100EC000002001F0004170BDC4F10004203C35DA7F
:100ED0000C341BDC04F11404C4F1200500FA05F302
:100EE00020FA04F001FA05F240EA020001F00042A3
:100EF00021F0004110EBD37021FA04F642EB060119
:100F00005EEA430E08BF20EAD37070BDC4F10C0442
:100F1000C4F1200500FA04F320FA05F001FA04F206
:100F200040EA020001F0004110EBD37041F10001F2
:100F30005EEA430E08BF20EAD37070BDC4F12005FD
:100F400000FA05F24EEA020E20FA04F301FA05F265
:100F500043EA020321FA04F001F0004121FA04F20D
:100F600020EA020000EBD3705EEA430E08BF20EADD
:100F7000D37070BD94F0000F0FD101F00046400017
:100F800041EB010111F4801F08BF013CF7D041EA99
:100F9000060195F0000F18BF704703F0004652009D
:100FA00043EB030313F4801F08BF013DF7D043EA6E
:100FB0000603704794EA0C0F0CEA135518BF95EA24
:100FC0000C0F0CD050EA410618BF52EA4306D1D1AB
:100FD00081EA030101F000414FF0000070BD50EACA
:100FE000410606BF1046194652EA430619D094EA54
:100FF0000C0F02D150EA013613D195EA0C0F05D13E
:1010000052EA03361CBF104619460AD181EA030191
:1010100001F0004141F0FE4141F470014FF0000049
:1010200070BD41F0FE4141F4780170BD70B54FF0E4
:10103000FF0C4CF4E06C1CEA11541DBF1CEA135564
:1010400094EA0C0F95EA0C0F00F0A7F8A4EB050446
:1010500081EA030E52EA03354FEA013100F088803D
:101060004FEA03334FF0805545EA131343EA126306
:101070004FEA022245EA111545EA10654FEA0026BB
:101080000EF000419D4208BF964244F1FD0404F574
:10109000407402D25B084FEA3202B61A65EB0305D0
:1010A0005B084FEA32024FF480104FF4002CB6EB8D
:1010B000020E75EB030E22BFB61A754640EA0C000D
:1010C0005B084FEA3202B6EB020E75EB030E22BF4D
:1010D000B61A754640EA5C005B084FEA3202B6EB8E
:1010E000020E75EB030E22BFB61A754640EA9C004D
:1010F0005B084FEA3202B6EB020E75EB030E22BF1D
:10110000B61A754640EADC0055EA060E18D04FEADA
:10111000051545EA16754FEA06164FEAC30343EA7A
:1011200052734FEAC2025FEA1C1CC0D111F4801F47
:101130000BD141EA00014FF000004FF0004CB6E740
:1011400011F4801F04BF01430020B4F1FD0C88BFDF
:10115000BCF5E06F3FF6AFAEB5EB030C04BFB6EBEA
:10116000020C5FEA500C50F1000041EB045170BDDD
:101170000EF0004E4EEA113114EB5C04C2BFD4EB0A
:101180000C0541EA045170BD41F480114FF0000E8E
:10119000013C90E645EA060E8DE60CEA135594EA0A
:1011A0000C0F08BF95EA0C0F3FF43BAF94EA0C0F0D
:1011B0000AD150EA01347FF434AF95EA0C0F7FF482
:1011C00025AF104619462CE795EA0C0F06D152EAD6
:1011D00003353FF4FDAE1046194622E750EA4106BA
:1011E00018BF52EA43067FF4C5AE50EA41047FF4CB
:1011F0000DAF52EA43057FF4EBAE12E74FEA410C24
:101200007FEA6C5C02D150EA013C0AD14FEA430C00
:101210007FEA6C5C02D152EA033C02D14FF000003D
:1012200070474FF0010070474FEA410212F500127B
:1012300015D211D56FF47873B3EB625212D94FEA1D
:10124000C12343F0004343EA505311F0004F23FA07
:1012500002F018BF404270474FF00000704750EA5C
:10126000013005D111F0004008BF6FF00040704719
:101270004FF00000704700BF0348044B834202D088
:10128000034B03B118477047E8060020E80600202A
:10129000000000000548064B1B1AD90F01EBA30103
:1012A000491002D0034B03B118477047E8060020ED
:1012B000E80600200000000010B5064C237843B972
:1012C000FFF7DAFF044B13B10448AFF300800123AA
:1012D000237010BDE8060020000000002C4D01081E
:1012E00008B5054B1BB105490548AFF30080BDE8C3
:1012F0000840FFF7CFBF00BF00000000EC06002051
:101300002C4D010800B583B00E4B9A6C42F00402DC
:101310009A649A6C02F004020092009A9A6C42F06D
:1013200001029A649B6C03F001030193019B00226C
:1013300011460B2000F0F4FE0B2000F001FF03B07B
:101340005DF804FB0010024070B588B003AD0024C6
:1013500003940494059406940794124BDA6C42F0BB
:101360000102DA64DA6C02F001020192019ADA6C8D
:1013700042F00202DA64DB6C03F002030293029B88
:10138000094E22460321304601F056F90323039308
:1013900001230493059406942946304601F05EF833
:1013A00008B070BD001002400004004872B6FEE7AD
:1013B00010B594B006AC3822002120460DF0F6FDA1
:1013C00000200190029003900490059001F03AF9FA
:1013D000022306934FF48072099240220A920D93E1
:1013E0000E9304220F92552210921193129313938D
:1013F000204601F0E1F978B90F230193032302930A
:10140000002303930493059304210DEB010001F0E5
:1014100089FC18B914B010BDFFF7C8FFFFF7C6FF6D
:1014200038B50546006804E004680C2103F060FB51
:1014300020468542F8D138BD38B50546006804E03D
:1014400004680C2103F054FB20468542F8D138BDD6
:1014500010B50C468368013B8360084604F0AEF883
:101460000C21204603F044FB10BD10B50C68FFF7BB
:10147000EFFF204610BD10B50C468368013B83602A
:10148000084604F09BF80C21204603F031FB10BD08
:1014900010B50C68FFF7EFFF204610BD10B50446ED
:1014A000406810B10C2103F023FB204610BD70B53D
:1014B00082B006460D460C2003F030FF044600962D
:1014C00001902B688360002301936846FFF7E6FFD5
:1014D000204602B070BD38B504460D461146FFF7F0
:1014E000E6FF294604F064F8A3680133A36038BD21
:1014F00008B50A460146FFF7EEFF08BD2DE9F041A9
:10150000A8B000F083FDFFF753FFFFF71DFFFFF7C3
:10151000F9FE00F005F900F049FA00F079FC00202E
:1015200000F054FC7D4B25AA93E8030082E80300F9
:1015300022AA23922292002224921FA920911F9175
:101540002192702203F1080103A8FFF739FB142050
:1015500000F07EFD4BE028B100271FB3382003F0D8
:10156000DDFE03E03B6828E00127F6E780466300E4
:10157000C4EBC401294428AA02EBC10151F8902C04
:1015800051F8941C0094013303F0D4F8CDF89C80FA
:1015900027A922A8FFF7ACFF28AB03EB8403013E89
:1015A00043F80C6C0135062D15DC28AB03EB8403E6
:1015B00053F80C6C002E0EDD229B1F4622AA93428C
:1015C000D2D0C4EBC4022A44996803A800EBC2003D
:1015D00002F0B4FEBFE70134012C0ADC28AB03EBB8
:1015E000840353F80C3C002BF5DD0025DBE70024D9
:1015F000F2E7229B11E0229B00E023681C4622AA0E
:10160000934206D099688D42F7D0284602F0BAFE80
:10161000F3E795F834304BB933681E4622AA93425B
:1016200009D09D68284603F035F9E4E71FA928464C
:1016300003F0A4F9F0E71F9B02E02B7F4BB933685E
:101640001E461FAA93420FD09D68284602F086FFCF
:10165000F3E7229C00E0246822AB9C42EFD0A16813
:10166000284602F0B3FEF6E71F9C08E01FA8FFF72C
:10167000FCFE04461DB12B689B682846984721460E
:101680001FAB9C4205D0A5682B7F002BEED02468B1
:10169000F5E7229C11E0EB6828AA02EB830353F8DC
:1016A0000C2C013243F80C2C22A8FFF7F1FE044663
:1016B0001DB12B689B6828469847214622AB9C4267
:1016C00005D0A5682B6B002BE5DD2468F5E7229C8F
:1016D00000E0246822AB9C4204D0A06803681B6829
:1016E0009847F6E71F9C00E024681FAB9C423FF43C
:1016F0002EAFA06803681B689847F5E700271FB165
:101700003821404603F0F4F91FA8FFF795FE22A800
:10171000FFF786FE03F0EEF9F1E7F5E7484D010823
:1017200008B51148114B03604FF4827343600023E6
:1017300083604FF4E062C2600222026101224261D2
:101740004FF4007282611022C261036243628362BD
:101750000722C2620363436301F0EDFC00B908BDD8
:10176000FFF724FEFBE700BF6407002000300140C4
:1017700010B588B000230393049305930693079351
:1017800002681F4B9A4201D008B010BD044603F511
:1017900060431A6E42F480521A661A6E02F4805246
:1017A0000192019ADA6C42F00102DA64DB6C03F018
:1017B00001030293029BA0230393022304930523B6
:1017C000079303A94FF0904000F048FE0D480E4BE0
:1017D00003600B234360102383600023C3608022D7
:1017E000026143618361C361036200F021FD18B9A6
:1017F000044B63659C62C7E7FFF7D8FDF8E700BFBD
:1018000000300140040700200800024000B583B00A
:101810000B4B1A6E42F001021A661A6E02F00102B8
:101820000092009A9A6D42F080529A659B6D03F087
:1018300080530193019B00F08BFF03B05DF804FB24
:1018400000100240FEE7FEE7FEE7FEE7FEE7704716
:101850007047704708B500F0E9FB08BD08B50248BD
:1018600000F099FD08BD00BF04070020012070476B
:1018700008B50DF037FD162303604FF0FF3008BDAB
:1018800008B54FF0FF31FFF7F3FFFEE770B50C46E8
:101890001646002506E0AFF30080214601F8010B53
:1018A00001350C46B542F6DB304670BD70B50C46CE
:1018B0001646002504E014F8010BAFF30080013553
:1018C000B542F8DB304670BD4FF0FF3070474FF443
:1018D00000534B6000207047012070470020704784
:1018E00010B503460C4A0D490D48006840B10C483C
:1018F00000680344521A934206D8094A136010BD87
:101900000748084C0460F2E70DF0ECFC0C23036080
:101910004FF0FF30F3E700BF00000220000400009A
:10192000CC07002060EC0020704700000268094BE3
:101930009A4200D0704782B003F564431A6E42F4B5
:1019400000621A661B6E03F400630193019B02B0F0
:10195000704700BF002C014000B587B00023019301
:10196000029303930493059302680F4B9A4202D0AB
:1019700007B05DF804FB03F56443DA6C42F0010242
:10198000DA64DB6C03F001030093009B4FF4807377
:101990000193022302930623059301A94FF090407F
:1019A00000F05CFDE4E700BF002C014010B59CB0E6
:1019B0000024189419941A941B941594169417944F
:1019C0000E940F941094119412941394149434223E
:1019D000214601A80DF0EAFA3148324B0360446019
:1019E00084604FF6FF73C36004614461846102F058
:1019F00017F8002841D14FF48053189318A92848AC
:101A000002F066F900283BD1254802F039F8002899
:101A100039D1002315931693179315A9204802F086
:101A2000D3FB002832D160230E9300220F92109234
:101A300011921292139214920EA9194802F09EF874
:101A400038BB0023019302930393049305934FF44F
:101A5000005206920793089309934FF000720A927E
:101A60000B930C930D9301A90D4802F003FC98B958
:101A70000B48FFF771FF1CB010BDFFF797FCBAE7EA
:101A8000FFF794FCC0E7FFF791FCC2E7FFF78EFC7D
:101A9000C9E7FFF78BFCD4E7FFF788FCE8E700BF56
:101AA000D0070020002C01400D488546FFF73CFF81
:101AB0000C480D490D4A002302E0D458C4500433A9
:101AC000C4188C42F9D30A4A0A4C002301E013607F
:101AD0000432A242FBD30DF00BFCFFF70FFDFEE733
:101AE0000000022000000020E8060020247F0108FA
:101AF000E80600205CEC0020FEE7000010B582B094
:101B00008DF807000B4C2268136823F0380343F06C
:101B10001003136000BF00220221074800F08CFD73
:101B200001220DF10701204601F07EFC00BF02B04A
:101B300010BD00BF640700200004004870B50646D1
:101B40000D46124B1A68136823F0380343F0100354
:101B5000136000BF012202210D4800F06DFD11E06D
:101B60004FF6FF74AC4228BF2C46A2B2314607485C
:101B700001F05AFC054B93F85D30012BFAD1A4B269
:101B800026442D1B002DEBD100BF70BD6407002043
:101B900000040048F0B583B00F461E46503085B2B1
:101BA000503294B22A20FFF7A9FF2B0A8DF8043097
:101BB0008DF80550230A8DF806308DF8074001ACEA
:101BC00004212046FFF7BAFF2B20FFF797FF3B0ABF
:101BD0008DF804308DF80570330A8DF806308DF8D5
:101BE000076004212046FFF7A9FF2C20FFF786FF9E
:101BF00003B0F0BD10B582B08DF807000C4C226820
:101C0000136823F0380343F01003136000BF012270
:101C10000221084800F010FD4FF0FF3301220DF1C2
:101C20000701204601F0FBFA00BF02B010BD00BF63
:101C3000640700200004004810B504463620FFF772
:101C40005DFF032C06D8DFE804F002060A0EC02070
:101C5000FFF7D0FF10BDA020FFF7CCFFFAE7002070
:101C6000FFF7C8FFF6E76020FFF7C4FFF2E7EF28B1
:101C700016D810B582B01446EF2901D902B010BDB4
:101C80000B460246FFF786FF230A8DF804308DF8D5
:101C9000054000BF022101A8FFF750FF00BFEDE79C
:101CA00070472DE9F04F83B08B4615461E46BDF8B0
:101CB00030805A1A82EAE279A9EBE279291A81EA9C
:101CC000E17AAAEBE17AD14504DC2E461D465B465B
:101CD00083461846B34505D82B4605461846334675
:101CE0005E469B46ABEB0604A3B20093471B002F56
:101CF000B8BF7F42C4F3C03303FA84F46410854252
:101D000020D34FF0FF3301930BE042462946304683
:101D1000FFF7ADFFE41BA3B224B2002C0BDB0136AE
:101D2000B6B25E4511D8D145EFDD42463146284670
:101D3000FFF79DFFEEE7019A1544ADB2009A1344F8
:101D40001CB2ECE701230193EBE703B0BDE8F08F91
:101D5000EF281DD838B515461C46EF2905D883183D
:101D6000F02B02DC0B19F02B00DD38BD00BF821810
:101D700092B29BB2013B013A9BB292B2FFF70AFFCB
:101D800004FB05F149000498FFF7D8FE00BFECE71B
:101D90007047F8B50646871801800346022407E01D
:101DA000224631463019FEF70BFF6400A4B22B46E1
:101DB0001D19BD42F4D3FF1A012F00DCF8BDBA1E75
:101DC00031463019FEF7FCFEF8E7000070B5054615
:101DD000EF231A4600210846FFF7DCFE00BF00246F
:101DE00010E0290241EA1521084E4FF4614289B200
:101DF0003046FFF7CEFF4FF461413046FFF79EFEBD
:101E00000134A4B2012CECD900BF70BD1C08002025
:101E100010B584B04FF4614200214E480DF0C6F871
:101E2000192000F015F94C4C00220121204600F049
:101E300003FC192000F00CF901221146204600F0A5
:101E4000FBFB322000F004F93A20FFF757FE552043
:101E5000FFF7D0FEB220FFF751FE404B93E803009E
:101E600000908DF8041005216846FFF767FE0120F9
:101E7000FFF7E2FEB720FFF741FE3520FFF7BAFE7D
:101E8000BB20FFF73BFE1920FFF7B4FEC020FFF791
:101E900035FE2C20FFF7AEFEC220FFF72FFE0120FB
:101EA000FFF7A8FEC320FFF729FE1220FFF7A2FECE
:101EB000C420FFF723FE2020FFF79CFEC620FFF77B
:101EC0001DFE0F20FFF796FED020FFF717FEA4207F
:101ED000FFF790FEA120FFF78DFEE020FFF70EFE3A
:101EE0001F4BEC460FCBACE80700ACF800300E21DE
:101EF0006846FFF723FEE120FFF700FE194BEC4692
:101F00000FCBACE80700ACF800300E216846FFF7B5
:101F100015FE2120FFF7F2FD1120FFF7EFFD132042
:101F2000FFF7ECFD2920FFF7E9FD322000F090F8E3
:101F30000D4C0021204601F085FF0021204602F0D3
:101F4000C5F80021204602F043F80020FFF73EFFCD
:101F500004B010BD1C08002000040048C04D01085A
:101F6000D84D0108E84D0108D0070020F8B500AFB2
:101F70003D8BEF2A28BFEF22EF2B28BFEF235C1AFF
:101F8000A2EB000C0CFB0444640004F1070C2CF0E1
:101F9000070CADEB0C0D00BFFFF7FCFD290241EA79
:101FA0001521224689B26846FFF7F3FE21466846AE
:101FB000FFF7C4FD00BFBD46F8BD0000104B1B6815
:101FC0000BB90120704710B504464FF47A70B0FB8E
:101FD000F3F30C4A1068B0FBF3F000F0B5F868B901
:101FE0000F2C01D901200AE0002221464FF0FF30DA
:101FF00000F096F8044B1C60002000E0012010BDAA
:1020000008000020040000200C00002010B5032070
:1020100000F074F80F20FFF7D1FF10B10124204623
:1020200010BD0446FFF7F2FBF9E70000034A13680E
:10203000034909680B441360704700BF1CE9002086
:1020400008000020014B1868704700BF1CE9002001
:1020500038B50446FFF7F6FF0546B4F1FF3F02D05E
:10206000044B1B681C44FFF7EDFF401BA042FAD352
:1020700038BD00BF08000020002807DB00F01F0269
:10208000400901239340024A42F82030704700BFC4
:1020900000E100E0002808DB0901C9B200F160405E
:1020A00000F5614080F80013704700F00F0009014F
:1020B000C9B2014B1954704714ED00E000B500F0AF
:1020C0000700C0F1070CBCF1040F28BF4FF0040C4F
:1020D000031D062B0FD9C31E4FF0FF3E0EFA0CF066
:1020E00021EA000199400EFA03FE22EA0E0241EABB
:1020F00002005DF804FB0023EEE70000074AD36806
:1021000023F4E0631B041B0C000200F4E0600343B3
:1021100043F0BF6343F40033D360704700ED00E049
:1021200010B50446054BD868C0F30220FFF7C6FF80
:1021300001462046FFF7AEFF10BD00BF00ED00E0F6
:1021400008B5FFF799FF08BD0138B0F1807F0BD2C9
:102150004FF0E0235861054AF02182F82310002057
:10216000986107221A6170470120704700ED00E076
:1021700010B4C46CD0F850C0C4F804C0446D24B18D
:10218000846DD0F85CC0C4F804C0446C04F01F0C2B
:10219000012404FA0CF4D0F840C0CCF804400468E0
:1021A00063608368102B05D0036899600368DA6068
:1021B00010BC704703689A600368D960F8E70000B4
:1021C00003680C4A934213D80B49DBB2083B0B4A15
:1021D000A2FB0323426C22F003020A448264084AF1
:1021E000C264C3F30413012202FA03F303657047C8
:1021F0000449EAE70704024000080240CDCCCCCCF9
:1022000080080240200802400379074A1A449200DD
:102210004265064A8265013B03F01F03012202FA70
:1022200003F3C365704700BF3F82001040090240BE
:10223000002859D010B5044602682C4B9A423BD86E
:102240002B4B13442B49A1FB03131B099B00436435
:10225000294B0364022384F8253011686FF30E11B3
:10226000A368E06803432069034360690343A069EE
:102270000343E0690343206A03430B431360204692
:10228000FFF79EFFA368B3F5804F20D0A36C22799F
:102290001A60E36C226D5A606368013B032B19D905
:1022A00000236365A365E3650020E063012384F8F0
:1022B000253084F8240010BD104B13440D49A1FBB8
:1022C00003131B099B0043640D4B0364C2E7002307
:1022D0006360DBE72046FFF797FF636D00221A601B
:1022E000A36DE26D5A60DFE70120704707040240EA
:1022F000F8FFFDBFCDCCCCCC00000240F8FBFDBF09
:102300000004024038B5044690F82400012840D06B
:10231000012084F8240094F82500012804D000232B
:1023200084F82430022038BD022084F825000020E3
:10233000E0632568286820F0010028602046FFF748
:1023400017FF236BD3B12268136843F00E031360A9
:10235000A36C1A6812F4803F03D01A6842F48072AA
:102360001A60636D1BB11A6842F480721A602268A9
:10237000136843F0010313600020D4E72268136858
:1023800023F0040313602268136843F00A03136008
:10239000DEE70220C7E738B5036C196804682568D2
:1023A000436C03F01F0304229A400A4215D015F033
:1023B000040F12D0236813F0200F03D1236823F0F9
:1023C00004032360436C03F01F02016C0423934059
:1023D0004B60036B03B1984738BD02229A400A4212
:1023E0001CD015F0020F19D0236813F0200F06D16E
:1023F000236823F00A032360012380F82530436C0F
:1024000003F01F02016C022393404B60002380F80D
:102410002430C36A002BDFD09847DDE7082202FA98
:1024200003F30B42D8D015F0080FD5D0236823F062
:102430000E032360436C03F01F03016C012202FAB8
:1024400003F34B60C26380F82520002380F824301A
:10245000436B002BC0D09847BEE7000070B582B038
:10246000002365E085685E000324B44025EA040586
:10247000CC68B4402C438460456825EA0C054C6860
:10248000C4F300149C402C43446062E0DD0808352E
:1024900050F8254003F0070C4FEA8C0C4FF00F0E5C
:1024A0000EFA0CFE24EA0E0E0C6904FA0CF444EA4F
:1024B0000E0440F8254063E0052400E0002404FAFF
:1024C0000EF42C430CF1020C574D45F82C40574CA0
:1024D000A568D44325EA0206D1F804C01CF4801F85
:1024E00001D042EA0506514DAE60ED6804EA0506EA
:1024F000D1F804C01CF4001F01D042EA05064B4D80
:10250000EE606D6804EA0506D1F804C01CF4003FD3
:1025100001D042EA0506454D6E602D682C404E689C
:1025200016F4803F01D042EA0504404A14600133AA
:102530000A6832FA03F474D04FF0010C0CFA03FC71
:102540001CEA0202F3D04C6804F00304013C012CA5
:1025500088D94C6804F00304032C0CD0C4685D00D7
:102560004FF0030C0CFA05FC24EA0C0C8C68AC4010
:1025700044EA0C04C4604C6804F00304022C85D0C7
:1025800004684FEA430E4FF0030C0CFA0EFC24EAE9
:102590000C0C4C6804F0030404FA0EF444EA0C0436
:1025A00004604C6814F4403FC1D0214C256E45F0C6
:1025B00001052566246E04F001040194019C4FEA94
:1025C000930C0CF10205184C54F8255003F0030E3F
:1025D0004FEA8E0E0F2404FA0EF425EA0405B0F13A
:1025E000904F3FF46BAF134CA04212D004F58064BF
:1025F000A04210D004F58064A0420ED004F580649F
:10260000A0420CD004F58064A0423FF455AF0624EC
:1026100055E7012453E7022451E703244FE704243C
:102620004DE702B070BD00BF000001400004014052
:1026300000100240000400480AB1816170478162C5
:1026400070470000002836D13E4B1B6803F4C0637E
:10265000B3F5806F08D03B4AD2F8803023F4807302
:10266000C2F8803000207047364AD2F8803023F418
:102670008073C2F88030136823F4C06343F400739E
:102680001360314B1B68322202FB03F32F4AA2FB7B
:1026900003239B0C013300E0013B2A4A526912F4E8
:1026A000806F01D0002BF7D1264B5B6913F4806F4C
:1026B00044D100207047B0F5007F08D0214A13684C
:1026C00023F4C06343F480631360002070471D4B04
:1026D0001B6803F4C063B3F5806F08D0194AD2F8C1
:1026E000803043F48073C2F8803000207047154A70
:1026F000D2F8803043F48073C2F88030136823F43A
:10270000C06343F4007313600F4B1B68322202FB5B
:1027100003F30E4AA2FB03239B0C013300E0013BB1
:10272000084A526912F4806F01D0002BF7D1054B93
:102730005B6913F4806F03D100207047032070475A
:1027400003207047007000400400002083DE1B431C
:10275000024A936843F480439360704700700040DE
:10276000124BDA6802F00302DB68C3F30313013390
:10277000032A11D00E48B0FBF3F00C4BDB68C3F317
:10278000062303FB00F0094BDB68C3F3416301330D
:102790005B00B0FBF3F070470648B0FBF3F0034B6F
:1027A000DB68C3F3062303FB00F0ECE700100240F4
:1027B0000024F40000127A00002800F04F8270B567
:1027C00082B00446036813F0010F37D0A44A93681F
:1027D00003F00C03D26802F003020C2B23D0082B69
:1027E00023D06368B3F5803F4ED0B3F5A02F51D00E
:1027F0009B4B1A6822F480321A601A6822F48022F5
:102800001A606368002B52D0FFF71CFC0546944BFE
:102810001B6813F4003F11D1FFF714FC401B642820
:10282000F5D9032023E2032AD9D18D4B1B6813F479
:10283000003F03D06368002B00F01282236813F07E
:10284000020F5DD0864A936803F00C03D26802F051
:1028500003020C2B3AD0042B3AD0E368002B75D03E
:102860007F4A136843F480731360FFF7EBFB054660
:102870007B4B1B6813F4806F5FD1FFF7E3FB401BBA
:102880000228F5D90320F2E1754A136843F4803336
:102890001360B6E703F18043A3F53C331A6842F4B2
:1028A00080221A601A6842F480321A60A9E7FFF7A2
:1028B000C9FB05466A4B1B6813F4003FBED0FFF707
:1028C000C1FB401B6428F5D90320D0E1022AC2D104
:1028D000634B1B6813F4806F03D0E368002B00F098
:1028E000C1815F4A536823F0FE43216943EA0163D3
:1028F00053605C4B1868FFF761FB002840F0B4811F
:10290000236813F0080F4CD063699BB3544AD2F884
:10291000943043F00103C2F89430FFF793FB05466F
:102920004F4BD3F8943013F0020F3AD1FFF78AFBE4
:10293000401B0228F4D9032099E1494A536823F047
:10294000FE43216943EA01635360D9E7444A1368AF
:1029500023F480731360FFF775FB0546404B1B683B
:1029600013F4806FCCD0FFF76DFB401B0228F5D924
:1029700003207CE13A4AD2F8943023F00103C2F8F4
:102980009430FFF75FFB0546354BD3F8943013F0D6
:10299000020F06D0FFF756FB401B0228F4D9032094
:1029A00065E1236813F0040F00F081802C4B9B6DD0
:1029B00013F0805F36D12A4B9A6D42F080529A65AF
:1029C0009B6D03F080530193019B0125264B1B68EF
:1029D00013F4807F28D0A368012B39D0052B45D074
:1029E0001F4BD3F8902022F00102C3F89020D3F8B7
:1029F000902022F00402C3F89020A368002B43D05B
:102A0000FFF720FB0646164BD3F8903013F0020F69
:102A10004CD1FFF717FB801B41F288339842F2D963
:102A2000032024E10025D1E70F4A136843F48073A3
:102A30001360FFF707FB06460B4B1B6813F4807F00
:102A4000C9D1FFF7FFFA801B0228F5D903200EE158
:102A5000034AD2F8903043F00103C2F89030CCE73B
:102A6000001002400C00002000700040884BD3F89A
:102A7000902042F00402C3F89020D3F8902042F056
:102A80000102C3F89020B8E7FFF7DCFA0646804B56
:102A9000D3F8903013F0020F08D0FFF7D3FA801B61
:102AA00041F288339842F2D90320E0E0E5B9236887
:102AB00013F0200F35D0A369E3B1754AD2F89830EE
:102AC00043F00103C2F89830FFF7BCFA0546704B9B
:102AD000D3F8983013F0020F23D1FFF7B3FA401B5D
:102AE0000228F4D90320C2E0694A936D23F0805391
:102AF0009365DCE7664AD2F8983023F00103C2F808
:102B00009830FFF79FFA0546614BD3F8983013F0E1
:102B1000020F06D0FFF796FA401B0228F4D90320D3
:102B2000A5E0E369002B00F0A180594A926802F009
:102B30000C020C2A64D0022B13D0554A136823F0E0
:102B400080731360FFF77EFA0446514B1B6813F045
:102B5000007F4ED0FFF776FA001B0228F5D903203C
:102B600085E04B4A136823F080731360FFF76AFA1D
:102B70000546474B1B6813F0007F06D0FFF762FA4B
:102B8000401B0228F5D9032071E0414AD36841492E
:102B90001940236A606A013843EA0013A06A43EAD5
:102BA0000023206B4008013843EA4053606B400823
:102BB000013843EA4063E06A43EAC0631943D160E5
:102BC000136843F080731360D36843F08073D3605D
:102BD000FFF738FA04462E4B1B6813F0007F06D12E
:102BE000FFF730FA001B0228F5D903203FE0002050
:102BF0003DE0274AD168284B0B40D360002036E0E7
:102C0000012B36D0224BDB6803F00301226A91428C
:102C100031D103F0F002616A0139B2EB011F2CD10E
:102C200003F4FE42A16AB2EB012F28D103F07842EF
:102C3000E16AB2EBC16F24D103F4C001226B5208E8
:102C4000013AB1EB425F1ED103F0C063626B5208E0
:102C5000013AB3EB426F18D1002008E00120704721
:102C6000012004E0012002E0012000E0002002B089
:102C700070BD0120FBE70120F9E70120F7E7012003
:102C8000F5E70120F3E70120F1E70120EFE700BFBE
:102C9000001002400C809F01FCFFEEFE1E4B9B6863
:102CA00003F00C03042B33D01B4B9B6803F00C0385
:102CB000082B2FD0184B9B6803F00C030C2B01D072
:102CC00000207047144BDA6802F00302DB68C3F39C
:102CD00003130133032A11D01048B0FBF3F00E4B5D
:102CE000DB68C3F3062303FB00F00B4BDB68C3F385
:102CF000416301335B00B0FBF3F070470848B0FB61
:102D0000F3F0054BDB68C3F3062303FB00F0ECE7AD
:102D10000248704702487047001002400024F40047
:102D200000127A00002800F0E680F8B50C4605464F
:102D3000744B1B6803F00F038B420BD2714A13686C
:102D400023F00F030B431360136803F00F038B4250
:102D500040F0D3802E6816F001065FD06B68032B1D
:102D60002FD0022B4DD0684B1B6813F4806F00F0FE
:102D7000C680FFF793FF654B98424DD9624A93682E
:102D800023F0F00343F08003936080265E4A93684B
:102D900023F0030369680B439360FFF753F9074679
:102DA000594B9B6803F00C036A68B3EB820F35D074
:102DB000FFF748F9C01B41F288339842F0D903204D
:102DC00078E0514B1B6813F0007F01D1012071E0C6
:102DD000FFF7C6FC4D4B98421AD94B4B9B6813F03A
:102DE000F00F05D02E6816F00206CFD0AB688BB975
:102DF000454A936823F0F00343F0800393608026F4
:102E0000C4E7414B1B6813F4003FB2D1012051E0ED
:102E10000026BBE70026B9E70026B7E72B6813F0CA
:102E2000020F48D013F0040F04D0374A936843F4DC
:102E3000E06393602B6813F0080F06D0324A936862
:102E400023F47C5343F4E06393602F4A936823F0A8
:102E5000F003A9680B4393602A4B1B6803F00F0330
:102E6000A34230D82B6813F0040F06D0264A93688B
:102E700023F4E063E9680B4393602B6813F0080FB9
:102E800007D0214A936823F46053296943EAC103B8
:102E90009360FFF703FF1C4B9B68C3F303131C4AAB
:102EA000D35C03F01F03D8401A4B18601A4B186804
:102EB000FFF784F8F8BD802ECED1134A936823F033
:102EC000F0039360C8E70F4A136823F00F0323430E
:102ED0001360FFF7B7F806460A4B1B6803F00F03B1
:102EE000A342BFD0FFF7AEF8801B41F2883398426F
:102EF000F2D90320DEE7012070470120DAE7012044
:102F0000D8E700BF002002400010024000B4C40413
:102F1000C84D0108040000200C0000202DE9F047F6
:102F200082B00546884617461E46FFF78BF80A9B77
:102F30001B1A03EB0609FFF785F88246284B1B682E
:102F4000C3F3CB3309FB03F301932B689C6838EA86
:102F500004040CBF01230023BB423DD0B6F1FF3F68
:102F6000F3D0FFF76FF8A0EB0A00484507D2019AAB
:102F700002B14A46019B013B01939146E5E72A686D
:102F8000536823F0E00353606B68B3F5827F0BD086
:102F9000AB6AB3F5005F14D0012385F85D300023E0
:102FA00085F85C30032018E0AB68B3F5004F02D021
:102FB000B3F5806FECD12A68136823F040031360E7
:102FC000E6E72A68136823F4005313602A6813683D
:102FD00043F400531360DFE7002002B0BDE8F08740
:102FE000040000202DE9F04782B006460C46154645
:102FF0001F4600238DF80330FFF724F80A9B1B1AA5
:1030000003EB0708FFF71EF88146D6F800A0304B07
:103010001B6803EB8303C3EBC3031B0D08FB03F324
:10302000019302E0B7F1FF3F12D133689B6803EAD6
:10303000040CAC4547D0B4F5C06FF3D1002DF1D1ED
:103040009AF80C30DBB28DF803309DF80330E9E7D5
:10305000FEF7F8FFA0EB0900404507D2019A02B144
:103060004246019B013B01939046DEE7326853687C
:1030700023F0E00353607368B3F5827F0BD0B36A2B
:10308000B3F5005F14D0012386F85D30002386F885
:103090005C30032018E0B368B3F5004F02D0B3F5FD
:1030A000806FECD13268136823F040031360E6E7C9
:1030B0003268136823F4005313603268136843F4D2
:1030C00000531360DFE7002002B0BDE8F08700BFC7
:1030D0000400002070B582B004460D4616460092EA
:1030E0000B4600224FF4C051FFF77CFFB0B90096A9
:1030F0002B46002280212046FFF710FFA8B900963A
:103100002B4600224FF4C0612046FFF76BFF50B101
:10311000236E43F020032366032004E0236E43F074
:1031200020032366032002B070BD236E43F020030A
:1031300023660320F7E700286FD010B50446436AE2
:1031400033B94368B3F5827F05D00023C36102E041
:103150000023036143610023A36294F85D30002BD8
:1031600052D0022384F85D302268136823F04003B4
:103170001360E368B3F5E06F4CD90022B3F5706FCC
:1031800004D0B3F5E06F01D00023A362636803F4B9
:103190008273A16801F404410B43216901F002012B
:1031A0000B43616901F001010B43A16901F4007156
:1031B0000B43E16901F038010B43216A01F0800102
:1031C0000B43A16A01F4005120680B430360638B39
:1031D00003F00403616A01F010010B43616B01F01D
:1031E00008010B43E16801F470610B43216813434C
:1031F0004B602268D36923F40063D361002020660A
:10320000012384F85D3010BD84F85C302046FEF761
:10321000AFFAA6E74FF48052B0E7012070472DE9DE
:10322000F04383B00446894690461D46FEF70AFFE8
:1032300094F85D30012B40F0F0800646DFB2B9F122
:10324000000F00F0EB80B8F1000F00F0E78094F879
:103250005C30012B00F0E680012384F85C3003230E
:1032600084F85D3000232366C4F83890A4F83C80CD
:10327000A4F83E802364A4F84430A4F846302365C3
:10328000E364A368B3F5004F1ED023681A6812F0F8
:10329000400F03D11A6842F040021A60E368B3F5A8
:1032A000E06F47D9636813B1B8F1010F20D1A26B69
:1032B00023681288DA60A36B0233A363E38F9BB2A7
:1032C000013B9BB2E38713E02268136823F04003BD
:1032D00013602268136843F480431360D5E7FEF758
:1032E000B1FE801BA84202D3B5F1FF3F1AD1CDB188
:1032F000E38F9BB2002B75D023689A6812F0020FFF
:10330000EDD0A26B1288DA60A36B0233A363B4F82A
:103310003EC01FFA8CFC0CF1FF3C1FFA8CFCA4F899
:103320003EC0E5E7012384F85D30002384F85C307B
:10333000032773E0636813B1B8F1010F28D1E38F5D
:103340009BB2012B0CD9A26B23681288DA60A36BA5
:103350000233A363E38F9BB2023B9BB2E38717E088
:10336000A26B236812781A73A36B0133A363E38FF4
:103370009BB2013B9BB2E3870AE0A36B1B88D3603F
:10338000A36B0233A363E38F9BB2023B9BB2E38741
:10339000E38F9BB233B32268936813F0020F0FD010
:1033A000E38F9BB2012BE8D8A36B1B781373A36B3D
:1033B0000133A363E38F9BB2013B9BB2E387E7E753
:1033C000FEF740FE801BA84202D3B5F1FF3F01D1BA
:1033D000002DDDD1012384F85D30002384F85C30BA
:1033E00003271BE0324629462046FFF773FE08B14B
:1033F00020232366A36833B901932368DA68019216
:103400009B680193019B012384F85D30002384F8BD
:103410005C30236E13B9002700E00227384603B062
:10342000BDE8F0830227F9E738B590F85D30012B4D
:1034300040F08C800446DDB2002900F08880002A2C
:1034400000F0858090F85C30012B00F08280012331
:1034500080F85C30032380F85D30002303668163CD
:103460008287C28703640365C364A0F84430A0F870
:1034700046308368B3F5004F3CD0636D364A1A631B
:10348000636D364ADA62636D354A5A63636D0022B2
:103490009A632268536823F480435360E368B3F56A
:1034A000E06F04D8636D9B69B3F5806F2DD02268FF
:1034B000E38F9BB20C32A16B606DFEF723FF0146D8
:1034C00000283BD123681A6812F0400F03D11A6814
:1034D00042F040021A60002384F85C30226853688E
:1034E00043F0200353602268536843F002035360A3
:1034F0000D462CE00268136823F040031360026855
:10350000136843F480431360B7E7E38F13F0010FB0
:1035100009D12268536823F480435360E38FC3F3D7
:103520004E03E387C3E72268536843F48043536044
:10353000E38FC3F34E030133E387B8E7236E43F011
:1035400010032366002384F85C3000E0022528463F
:1035500038BD0225FBE700BF693500089735000834
:10356000753500087047704708B5806AFFF7FBFFA4
:1035700008BD704708B5806A0268536823F00303EA
:103580005360036E43F010030366012380F85D303F
:10359000FFF7EFFF08BD30B583B00546846AFEF73C
:1035A00051FD2B681B6813F0200F23D102462168C0
:1035B0004B6823F020034B6021684B6823F0020323
:1035C0004B6064212046FFF785FD18B1236E43F060
:1035D00020032366A36833B901932368DA68019254
:1035E0009B680193019B0023E387012384F85D30EE
:1035F000236E23B92046FFF7B5FF03B030BD204648
:10360000FFF7B7FFF9E7000030B4026A036A23F05E
:10361000010303624468836923F4803323F0730356
:103620000D681D4322F002028B681343204A90422A
:1036300013D002F5006290420FD002F54062904232
:103640000BD002F58062904207D002F58062904272
:1036500003D002F50062904205D123F00803CA6846
:103660001A4322F00403124A904213D002F500627A
:1036700090420FD002F5406290420BD002F580627A
:10368000904207D002F58062904203D002F50062BA
:10369000904205D124F440744A6922438C69144352
:1036A000446085614A684263036230BC704700BF72
:1036B000002C014030B4036A026A22F48072026274
:1036C0004468C26922F4803222F073020D68154307
:1036D00023F400738A6843EA02231C4A904207D00D
:1036E00002F50062904203D002F5E052904206D10A
:1036F00023F40063CA6843EA022323F48063134A75
:10370000904213D002F5006290420FD002F5406261
:1037100090420BD002F58062904207D002F58062A1
:10372000904203D002F50062904207D124F4405247
:103730004C6942EA04128C6942EA04144460C5618F
:103740004A68C263036230BC704700BF002C01406E
:1037500030B4036A026A22F4805202624468C26989
:1037600022F0807222F4E6420D6842EA052223F438
:1037700000538D6843EA05331B4DA84207D005F579
:103780000065A84203D005F5E055A84206D123F410
:103790000043CD6843EA053323F48043124DA84229
:1037A00013D005F50065A8420FD005F54065A84285
:1037B0000BD005F58065A84207D005F58065A842C5
:1037C00003D005F50065A84207D124F4404C4C69AC
:1037D0004CEA841C8C694CEA84144460C2614A68D7
:1037E0000264036230BC7047002C014030B4036AAD
:1037F000026A22F4803202624468026D22F480324E
:1038000022F070020D68154323F400338A6843EAFE
:103810000243114A904213D002F5006290420FD049
:1038200002F5406290420BD002F58062904207D0D0
:1038300002F58062904203D002F50062904204D10A
:1038400024F480344A6944EA0224446005654A68E5
:103850008264036230BC7047002C014030B4036ABC
:10386000026A22F4801202624468026D22F08072C1
:1038700022F4E0420D6842EA052223F400138D6829
:1038800043EA0553114DA84213D005F50065A8423F
:103890000FD005F54065A8420BD005F58065A8421C
:1038A00007D005F58065A84203D005F50065A8425C
:1038B00004D124F480244D6944EA852444600265DF
:1038C0004A68C264036230BC704700BF002C0140EC
:1038D00010B4036A046A24F001040462846924F0C9
:1038E000F00C4CEA021223F00A030B4382610362DC
:1038F00010BC704710B4036A046A24F01004046218
:10390000846924F4704C4CEA023223F0A00343EAA9
:1039100001138261036210BC7047836823F4401373
:1039200023F070030B4343F0070383607047704735
:1039300003683A4A904216D0B0F1804F13D0A2F5F6
:10394000943290420FD002F5806290420BD002F583
:103950008062904207D002F59432904203D002F583
:10396000E052904203D123F070034A6813432B4A7C
:10397000904222D0B0F1804F1FD0A2F594329042F5
:103980001BD002F58062904217D002F5806290420F
:1039900013D002F5943290420FD002F5406290426B
:1039A0000BD002F58062904207D002F5806290420F
:1039B00003D002F50062904203D123F44073CA6839
:1039C000134323F080034A69134303608B68C36287
:1039D0000B688362114B984213D003F50063984241
:1039E0000FD003F5406398420BD003F580639842F3
:1039F00007D003F58063984203D003F50063984233
:103A000001D10B69036301234361036913F0010FC3
:103A100003D0036923F0010303617047002C0140C8
:103A200060B310B5044690F83D3013B3022384F818
:103A30003D30214651F8040BFFF77AFF012384F84B
:103A4000483084F83E3084F83F3084F8403084F8C1
:103A5000413084F8423084F8433084F8443084F8AC
:103A6000453084F8463084F8473084F83D300020F3
:103A700010BD80F83C30FDF759FFD7E701207047B3
:103A800060B310B5044690F83D3013B3022384F8B8
:103A90003D30214651F8040BFFF74AFF012384F81B
:103AA000483084F83E3084F83F3084F8403084F861
:103AB000413084F8423084F8433084F8443084F84C
:103AC000453084F8463084F8473084F83D30002093
:103AD00010BD80F83C30FFF72AFFD7E70120704780
:103AE00030B4036A026A22F01002026244688269FA
:103AF00022F0807222F4E6420D6842EA052223F0A9
:103B000020038D6843EA05131B4DA84207D005F535
:103B10000065A84203D005F5E055A84206D123F080
:103B20008003CD6843EA051323F04003124DA842F9
:103B300013D005F50065A8420FD005F54065A842F1
:103B40000BD005F58065A84207D005F58065A84231
:103B500003D005F50065A84207D124F4406C4C69F8
:103B60004CEA840C8C694CEA8404446082614A68A3
:103B70008263036230BC7047002C014038B590F876
:103B80003C30012B00F0958004460D46012380F85F
:103B90003C30142A00F28880DFE802F00B8686862B
:103BA0001F86868634868686488686865D868686D5
:103BB00071000068FFF728FD2268936943F008034D
:103BC00093612268936923F00403936122689369E7
:103BD00029690B439361002067E00068FFF780FFCD
:103BE0002268936943F4006393612268936923F424
:103BF0008063936122689369296943EA0123936191
:103C0000002052E00068FFF755FD2268D36943F0B9
:103C10000803D3612268D36923F00403D3612268C7
:103C2000D36929690B43D36100203EE00068FFF7A8
:103C30008FFD2268D36943F40063D3612268D3699E
:103C400023F48063D3612268D369296943EA01239D
:103C5000D361002029E00068FFF7C8FD2268136DDA
:103C600043F0080313652268136D23F00403136502
:103C70002268136D29690B431365002015E0006865
:103C8000FFF7ECFD2268136D43F4006313652268AF
:103C9000136D23F4806313652268136D296943EA69
:103CA00001231365002000E00120002384F83C304C
:103CB00038BD0220FCE710B4846824F47F4C42EA4B
:103CC00003220A4342EA0C02826010BC70470000E3
:103CD00090F83C30012B00F09B8010B50446012386
:103CE00080F83C30022380F83D3002689068494BF0
:103CF000034093600B68702B61D031D8502B78D083
:103D00001FD8402B0AD1CA6849682068FFF7E0FD38
:103D100040212068FFF701FE002029E074D8202B05
:103D200003D00AD80BB1102B05D119462068FFF734
:103D3000F4FD00201CE001201AE0302BF5D001201A
:103D400016E0602B0AD1CA6849682068FFF7D2FDE7
:103D500060212068FFF7E1FD002009E0012007E075
:103D6000B3F5005F38D00AD8B3F5805F4ED100209C
:103D7000012384F83D30002384F83C3010BD264AEE
:103D80009342D2D010D8203A9342CED007D8B3F580
:103D9000801FCAD0B3F1101FC7D00120E8E71F4A27
:103DA0009342C2D00120E3E71D4A9342BDD01032B6
:103DB0009342BAD0203A9342B7D00120D8E7CB68DB
:103DC0004A6889682068FFF776FF2268936843F0A5
:103DD000770393600020CBE7CB684A688968206846
:103DE000FFF769FF2268936843F4804393600020E3
:103DF000BEE7CA6849682068FFF76AFD502120685D
:103E0000FFF78BFD0020B3E70120B1E70120AFE70A
:103E1000022070478800CEFF4000100030001000E4
:103E20006000100001F01F014FF0010C0CFA01FCC2
:103E3000036A23EA0C030362036A8A4013430362A2
:103E40007047000010B50446102928D8DFE801F0BB
:103E5000092727270F272727152727271B27272746
:103E6000210090F83E30013B18BF01231CE090F880
:103E70003F30013B18BF012316E090F84030013B72
:103E800018BF012310E090F84130013B18BF012317
:103E90000AE090F84230013B18BF012304E090F89B
:103EA0004330013B18BF0123002B76D110291ED8C7
:103EB000DFE801F0091D1D1D0D1D1D1D111D1D1D1E
:103EC000151D1D1D1900022384F83E3012E0022347
:103ED00084F83F300EE0022384F840300AE00223E9
:103EE00084F8413006E0022384F8423002E00223E5
:103EF00084F8433001222068FFF794FF23682A4AA0
:103F0000934213D002F5006293420FD002F5406253
:103F100093420BD002F58062934207D002F5806293
:103F2000934203D002F50062934203D15A6C42F4EB
:103F300000425A6423681C4A934220D0B3F1804F58
:103F40001DD0A2F59432934219D002F580629342BB
:103F500015D002F58062934211D002F5943293425B
:103F60000DD002F54062934209D002F5805293428F
:103F700005D01A6842F001021A6000200EE099682C
:103F80000A4A0A40062A0AD0B2F5803F09D01A68C8
:103F900042F001021A60002000E0012010BD002064
:103FA000FCE70020FAE700BF002C014007000100F9
:103FB00001F00F014FF0040C0CFA01FC036A23EA34
:103FC0000C030362036A8A401343036270470000D4
:103FD00010B50446084600293AD194F84430013B14
:103FE00018BF0123002B67D1002847D1022384F892
:103FF0004430042201462068FFF7DAFF2268536C40
:1040000043F40043536423682E4A934246D0B3F1ED
:10401000804F43D0A2F5943293423FD002F58062A4
:1040200093423BD002F58062934237D002F594323E
:10403000934233D002F5406293422FD002F5805272
:1040400093422BD01A6842F001021A60002034E03B
:10405000042907D008290BD094F84730013B18BF3A
:104060000123BFE794F84530013B18BF0123B9E7AE
:1040700094F84630013B18BF0123B3E7042805D06C
:10408000082807D0022384F84730B2E7022384F8D7
:104090004530AEE7022384F84630AAE799680A4A19
:1040A0000A40062A0AD0B2F5803F09D01A6842F0C9
:1040B00001021A60002000E0012010BD0020FCE792
:1040C0000020FAE7002C01400700010010B504466B
:1040D000084600293AD194F84430013B18BF012327
:1040E000002B67D1002847D1022384F844300422F2
:1040F00001462068FFF75CFF2268536C43F40043DD
:10410000536423682E4A934246D0B3F1804F43D084
:10411000A2F5943293423FD002F5806293423BD0A5
:1041200002F58062934237D002F59432934233D045
:1041300002F5406293422FD002F5805293422BD079
:104140001A6842F001021A60002034E0042907D006
:1041500008290BD094F84730013B18BF0123BFE773
:1041600094F84530013B18BF0123B9E794F8463075
:10417000013B18BF0123B3E7042805D0082807D066
:10418000022384F84730B2E7022384F84530AEE7D3
:10419000022384F84630AAE799680A4A0A40062AA8
:1041A0000AD0B2F5803F09D01A6842F001021A60C5
:1041B000002000E0012010BD0020FCE70020FAE70D
:1041C000002C01400700010090F83C20012A4CD04F
:1041D00030B40346012280F83C20022280F83D20C2
:1041E000006842688468224DA84207D005F5006542
:1041F000A84203D005F5E055A84203D122F470028D
:104200004D682A4322F0007222F070020D682A43A2
:1042100042601A68164882421AD0B2F1804F17D015
:10422000A0F59430824213D000F5806082420FD016
:1042300000F5806082420BD000F59430824207D0B6
:1042400000F54060824203D000F58050824204D1E4
:1042500024F08004896821439160012283F83D2085
:10426000002083F83C0030BC70470220704700BF3C
:10427000002C014090F83C30012B49D010B402468C
:10428000012380F83C30CB6823F4407388680343F3
:1042900023F480634868034323F4006308680343FE
:1042A00023F480530869034323F40053486903430C
:1042B00023F48043086B034323F47023886943EAA3
:1042C000004323F08053C86903431068114CA04297
:1042D00007D004F50064A04203D004F5E054A042E6
:1042E00010D123F470038C6A43EA045323F08073E3
:1042F0000C6A234323F000734C6A234323F00053DA
:10430000C96A0B434364002082F83C0010BC70472C
:1043100002207047002C014010B4044C046041603E
:104320008260019AC260036110BC7047C8590108DD
:10433000014B0360704700BFC859010838B50546F6
:104340000C4600684B68C01AFCF7ACF821F000413D
:1043500000220B4BFCF784F968B96868A368C01A9F
:10436000FCF7A0F821F000410022054BFCF778F99A
:1043700018B9012038BD0020FCE70020FAE700BF93
:1043800000002C4038B504460D4640684B68C01A02
:10439000FCF788F821F0004100220B4BFCF760F994
:1043A00058B9A068AB68C01AFCF77CF821F000414E
:1043B0000022054BFCF754F900B138BD012120461D
:1043C00000F032FAF9E700BF0000284038B5054692
:1043D0000C4648686B68C01AFCF764F821F000418D
:1043E0000022154BFCF73CF900BBA068AB68C01A73
:1043F000FCF758F821F0004100220F4BFCF730F990
:10440000A0B900232B77EA68E3689A420ED02B69A3
:10441000226913445A4203F0030302F0030258BF17
:104420005342022B03D0236B023B236338BD236B23
:10443000013B2363FAE700BF00001C40037F002B11
:104440003ED010B582B004460369032B1AD8DFE8CA
:1044500003F0021F021F808A218B4B1C01390022AE
:1044600000929BB2024689B2FDF71BFCA08821890D
:104470004B1C013948F2304200929BB2024689B28D
:10448000FDF70FFC63686361A368A36102B010BD10
:10449000808A218B421C0138002300930B4692B284
:1044A00080B2FDF7FEFBA0882189421C013848F24A
:1044B000304300930B4692B280B2FDF7F2FBE1E786
:1044C0007047000010B582B00446134B03600369C7
:1044D000032B0ED8DFE803F002130213808A218B2E
:1044E0004B1C0139002200929BB2024689B2FDF7B3
:1044F000D8FB2046FFF71CFF204602B010BD808A83
:10450000218B421C0138002300930B4692B280B2EB
:10451000FDF7C7FBEDE700BFF059010810B50446F1
:10452000FFF7D0FF2021204600F0E2FA204610BD20
:1045300010B582B00446DDF810C0CDF800C0FFF71A
:10454000EBFE054B23600123237763686361A36857
:10455000A361204602B010BDF05901080369032B86
:1045600006D8DFE803F002150D118368033B836072
:104570004368002B10DDEE2B10DD002303770DE0E8
:10458000836803338360F3E74368033B4360EFE7EB
:10459000436803334360EBE7002303778368002B12
:1045A00004DDEE2B01DD0023037770470023037742
:1045B000704710B582B0044690F82C30022B12D010
:1045C0006068A168E36962694FF4A97404FB02336F
:1045D0000639063800930D231A4689B280B2FDF7DA
:1045E000B7FB02B010BD0369032BE9D8DFE803F085
:1045F000022C101E8088A168073189B2821D0638FE
:10460000002300930B4692B280B2FDF74AFBD7E736
:104610008088A168073989B2821D0638002300937B
:104620000B4692B280B2FDF73CFBC9E74068073009
:1046300080B221898B1D0639002200929BB202466E
:1046400089B2FDF72EFBBBE74068073880B22189AD
:104650008B1D0639002200929BB2024689B2FDF7FB
:1046600020FBADE730B583B004462C4B036090F8D7
:104670002C30022B13D0A0882189CB1DC21D0639F6
:104680000638002500959BB292B289B280B2FDF740
:104690006DFC2046FFF74CFE204603B030BD036999
:1046A000032BE8D8DFE803F0022C101E8088A168F5
:1046B000073189B2821D0638002300930B4692B25F
:1046C00080B2FDF7EEFAD6E78088A168073989B293
:1046D000821D0638002300930B4692B280B2FDF78C
:1046E000E0FAC8E74068073080B221898B1D06399F
:1046F000002200929BB2024689B2FDF7D2FABAE7D5
:104700004068073880B221898B1D0639002200924B
:104710009BB2024689B2FDF7C4FAACE7185A010809
:1047200010B50446FFF79EFF3821204600F0E0F95F
:10473000204610BD30B583B00446069D0095FFF7B6
:10474000EBFD0E4B23600023A361ADB90C4B23623C
:1047500000226262A262012184F82C1002212163EE
:1047600084F83420626122694FF4297101FB02331D
:10477000E361204603B030BD024BE8E7185A010858
:10478000B4640108245A0108022380F82C30436ADB
:10479000013343620369032B06D8DFE803F0022BE1
:1047A00023278368013B83604368052B26DC0623AF
:1047B0004360032380F82C30836A0133836283686B
:1047C000052B26DC06238360032380F82C30836AC4
:1047D000013383624369013303F0010348BF5B4245
:1047E00043617047836801338360DDE74368013BC1
:1047F0004360D9E7436801334360D5E7E92BDEDD49
:10480000E9234360032380F82C30836A01338362F9
:10481000D5E7E92BDEDD836A01338362E923836018
:10482000032380F82C30D5E70369032B06D8DFE893
:1048300003F00218101483680133836041B1836A66
:10484000092B12DC012213448362032380F82C30ED
:1048500070478368013B8360F0E74368013343603E
:10486000ECE74368013B4360E8E70022EBE74B429B
:1048700001F0030103F0030358BF59420161036AC9
:104880004FF4297202FB0133C361012380F82C30FD
:104890007047000038B50446436A642B02DC826A24
:1048A000032A29DD09F088FB4342C0F30B00C3F360
:1048B0000B0358BF584240F67463984208DC204608
:1048C000FFF762FFA3693B2B19DC0133A36138BDFD
:1048D0000023A3626362256909F06EFB0D4B83FB25
:1048E0000023A3EBE07303EB4303C31AE918013180
:1048F0002046FFF7BCFFE2E701334362DFE709F040
:104900005BFB054B9842E2DD0023A361012384F8A1
:104910003430DCE756555555FFCFF30010B504464B
:10492000406810B10C2100F0E3F8204610BD70B5CE
:1049300082B006460D460C2000F0F0FC04460096BE
:1049400001902B688360002301936846FFF7E6FF20
:10495000204602B070BD38B504460D461146FFF73B
:10496000E6FF294600F024FEA3680133A36038BDAA
:1049700008B50A460146FFF7EEFF08BD2DE9F041F4
:1049800084B004460F46002380F8343045688668BA
:104990000369032B04D8DFE803F002120E10083E6F
:1049A000002D05DDF12D03DC002E01DDF12E08DDEB
:1049B00004B0BDE8F0810836F2E7083DF0E70835BD
:1049C000EEE7202000F0AAFC8046E368009323690C
:1049D00032462946FFF7ACFDCDF80C8003A93846D6
:1049E000FFF7C6FFE4E72021404600F081F800F021
:1049F00081F8000070B5036884B000249E690394B8
:104A0000102315460293CDE900446B461268B04767
:104A10009DF8043003F00603062B03BF009B2B60B8
:104A20000120204604B070BD009890420CBF0620C3
:104A30000120704710B5034B0360044600F01AFDD7
:104A4000204610BD7C6F010810B5054B036004467D
:104A500000F010FD2046082100F04AF8204610BD65
:104A60007C6F01082DE9F041069F0899099E8F424D
:104A7000044690461D460CD02946204600F0FEFC18
:104A800020B10123376086F80480B3710020BDE8AF
:104A9000F081079900F0F2FC0028EDD086F805803F
:104AA0000020BDE8F08100BF38B515461C4600F077
:104AB000E5FC00B938BD082206232560E2602371B9
:104AC00038BD00BF2DE9F041064617461D460C468D
:104AD00000F0D4FC48B9032D07D823683A46314684
:104AE00020465B69BDE8F0411847BDE8F08100BF92
:104AF00007F02EBD1EB400F08DF81EBCFBF752FE71
:104B0000F0B50278472A83B00C461D4619D0264ED0
:104B10000020336801909B683046984778B1019B2C
:104B20001B68019302272368314620461E6901AAAB
:104B30000123B04738BB0746384603B0F0BD012714
:104B4000F1E743784E2BE2D18378552BDFD1C37840
:104B5000432BDCD10379462B1AD0432BD7D1437991
:104B60002B2BD4D183792B2BD1D1C379012BCED848
:104B700050F8206C4FF0000301930ABF30465830C4
:104B800056F8786CC5E7019B2B60384603B0F0BD42
:104B900043794F2BBBD18379522BB8D1C0790028F0
:104BA000B5D1024EB5E700BF24700108F86F0108C7
:104BB00010B5044600F07AF8224612F82039472B47
:104BC00004D0836823BB8260012010BD63784E2B24
:104BD000F7D1A378552BF4D1E378432BF1D1237986
:104BE000432BEED163792B2BEBD1A3792B2BE8D17F
:104BF000E379012BE5D854F8043C0133012B44F848
:104C0000043CE1D1836844F8083C8260012010BD77
:104C100000F05CFB08B500F049F8836883B393F8B3
:104C20002020472A04D00022826003F1200008BD22
:104C300093F821204E2AF6D193F82220552AF2D15A
:104C400093F82320432AEED193F82420432AEAD173
:104C500093F825202B2AE6D193F826202B2AE2D19F
:104C600093F82720012ADED8DA69013ADA61002AAE
:104C7000DBD19969816000229A6103F1200008BDAF
:104C800000F024FB704700BF704700BF004870472A
:104C9000F84D010810B504210446FFF729FF20460E
:104CA00010BD00BF0048704720E900200048704751
:104CB00020E90020502870B51DD0844600F00F0078
:104CC0000C2855D8DFE800F0074426071E5454543A
:104CD000542A22071E00104650F8046B4EB10CF007
:104CE0007004102C08BF11460E441CF0800F18BF32
:104CF00036681E6070BDD01C20F0030050F8046BB5
:104D00001E6070BD104650F8086BE7E7104630F99A
:104D1000026BE3E7104630F8026BDFE7002610462F
:104D2000344610F8015B05F07F0E0EFA04FE15F014
:104D3000800F46EA0E0604F10704F2D11F2CCDD8ED
:104D40006D06CBD54FF0FF3505FA04F42643C6E7D0
:104D500000261046344610F8015B05F07F0E0EFA6F
:104D600004FE2D0646EA0E0604F10704F3D4B5E767
:104D700008F0E4FDFF2808B5034612D003F07003E5
:104D8000302B084613D005D8202B09D1BDE80840A8
:104D900008F0D1BD402B06D1BDE8084008F0B8BDF1
:104DA00003D8002008BD502BFBD008F0C7FDBDE89C
:104DB000084008F0BDBD00BFF8B50C4615460646D4
:104DC00008B108F0A5FD286014F8017BFF2F28D159
:104DD0006860204610F8013BFF2B32D010230024DE
:104DE0002B75224610F8011B01F07F039340090642
:104DF00044EA030402F10702F4D40444EC6010F81E
:104E0000013B6B750024224610F8011B01F07F0363
:104E100093401C430B0602F10702F5D404442C61B5
:104E2000F8BD31463846FFF7A5FF2B1D0146224647
:104E30003846FFF73FFF0446204610F8013BFF2BA2
:104E4000CCD12B750024D9E72DE9F04F99B0002380
:104E50001C46039300F00303012B0E94884617466B
:104E600000F0AB80022B0AD13946404608F03AFDEB
:104E7000002840F09780082019B0BDE8F08F002B83
:104E800040F0158210F00804EED112AB0125049316
:104E9000049B009300230C2219463846CDF8488025
:104EA00008F030F8384608F039FD06900028DBD0CD
:104EB00044EA05030593039B049A06998DF85C3038
:104EC00038460023CDE91533FFF776FF9DF85C30B7
:104ED0000393054639461846159B169C0993FFF720
:104EE00049FF0DF144090023089014901946CDF8AC
:104EF00000900F22384607F0DDFF119BA54223F0FA
:104F0000010303F1FF3B34D29DF85D60DDF848A05A
:104F100000213046FFF72EFF2A4601460FAB3046F0
:104F2000FFF7C8FE002105463046FFF723FF2A465B
:104F3000014610AB3046FFF7BDFE00210546304666
:104F4000FFF718FF2A4601464B463046FFF7B2FEF0
:104F500005460020024615F8011B01F07F0393402F
:104F600018430B0602F10702F5D40F9B53445B452F
:104F70001CD9059BDC0727D50E9B00251C462E4619
:104F800000231946CDF8009038460D2207F092FF15
:104F9000069BC8E90B36119BC8F82030C8E90945C3
:104FA000062069E7092019B0BDE8F08F109A134474
:104FB0005B4560D8A542ABD3DBE710F008040AD00C
:104FC00012AB0493022563E7059B180700F16D817E
:104FD000404607F0F0FB12AB0D6A04930093039B6D
:104FE0000D221946384607F065FF129B9D42E9D114
:104FF000049B0093039BCDF848800C221946384649
:1050000007F080FFD8F83060002EE1D0D8E90A53CD
:105010000DF144090693002DC0F200810324002302
:105020001A461946CDF800903846CDF8448007F06E
:1050300069FF002319460122CDF8009038461195EA
:1050400007F060FF002319460F22CDF80090384684
:1050500007F030FF119ACDF8009002F00102002312
:105060003243119238460F22194607F04BFF022CAB
:1050700069D0072000E7119E002E3FF4F5AE139A89
:105080001644002800F0F38001380444002E3FF459
:10509000EBAE059B13F008030C9300F0F280854BF8
:1050A000C8F80030844BC8F8043000230793039BF2
:1050B000DDF824A0CDE90A6703F007034FF0010BE8
:1050C0000D9300252A4614F8011B01F07F0393403D
:1050D000080645EA030502F10702F4D41F2A05D8A1
:1050E0004B0603D50BFA02F35B421D430026204614
:1050F000324610F8011B01F07F0393400F0646EA89
:10510000030602F10702F4D41F2A48D8490646D5FF
:105110000BFA02F35B421E43002D7BD0059B022B52
:105120000FD0002D41DC6FF040435B1B0AEB83077F
:105130005AF82310B8F1000F01D00C9B3BB131B3EA
:10514000C6B13444BDE74046FFF732FD91E70E9B00
:10515000119329B99FE057F8041F002900F08A80B5
:1051600039444B4600224046FFF7CAFC0028F2D0E3
:10517000002EE6D1079BDDE90A67002B3FF474AEF1
:10518000059BDD073FF570AE0025022447E7059B30
:10519000DA07DDE90A6718D50E9B1C46F0E67DB1FB
:1051A000059B022BCCD0002DBDDD039BFF2B5CD0DB
:1051B0000D9A042A7BD8DFE802F00D7A2A0D270029
:1051C00001230793002EBCD1D4E7002D3FF426AF76
:1051D00000F08AF8AAEB8502089903984B46FFF77E
:1051E00069FD119949B1B8F1000FA9D00EAB0022A9
:1051F0004046FFF785FC0028A2D0059BD907DDE9D2
:105200000A677FF50BAFC7E7AAEBC502E4E7AAEB95
:105210004502E1E701230793344452E7099B049ACE
:10522000069915933846039B8DF85C30FFF7C4FD53
:105230009DF85C00159C3946FFF79CFD6FF04043DC
:105240005B1B04EB830C54F8233033B1624600231C
:1052500052F8041F01330029FAD1C8E90A300423A7
:10526000C8F834C0C8F83030D8E65246B4E7002E4B
:1052700086D1F9E5059BDB07DDE90A677FF5CBAE53
:105280008AE798F80730012B0CBF58F8203C08F14A
:1052900058030E9309E71C46059BDB07DDE90A6707
:1052A0003FF56EAEB7E607F001FB00F00FF808F02F
:1052B00045FB00BF474E5543464F520008B5804757
:1052C00008F03CFB07F0F2FA08F038FB08B5034B96
:1052D0001868BFF35B8FFFF7F1FF00BF14000020D9
:1052E00008B58047FFF7F2FF08B5034B1868BFF316
:1052F0005B8FFFF7F5FF00BF10000020024B18681E
:10530000BFF35B8F704700BF14000020024B18688A
:10531000BFF35B8F704700BF10000020012838BF2B
:10532000012010B50446204608F05EFB00B110BD18
:1053300007F0E4FB08B18047F5E7042007F07EF9A9
:10534000024B034A0349036007F078FBDC70010855
:10535000D1550008C870010810B5034B036004461E
:10536000FFF768FB204610BD7C70010810B5054BA7
:1053700003600446FFF75EFB20460C21FFF7B8FBF5
:10538000204610BD7C70010870B582B00446069EB0
:1053900096420D4609D0A06804680696246A2946FC
:1053A000A44602B0BDE870406047194601920093E0
:1053B00000F064F8DDE900320028ECD0062002B0ED
:1053C00070BD00BF2DE9F04F0D4681B01946DDE9F3
:1053D0000A8BDDE90CA91C460746164600F04EF87C
:1053E00080B9D04527D0B86823460468CDE90CA918
:1053F000CDE90A8BE46932462946A44601B0BDE8EE
:10540000F04F6047002DC9F8008089F804600CDB7C
:10541000A844C24514BF4FF001084FF0060889F8B0
:105420000680002001B0BDE8F08F0235F9D10123DC
:1054300089F80630F5E75946384600F01FF800288D
:10544000D1D089F80560ECE72DE9F04106460F461A
:1054500014461D46FFF728FB48B9B068016822468C
:105460008C692B463946A446BDE8F0416047BDE84B
:10547000F08100BF704700BF00207047814211D00B
:1054800008B5406803782A2B0AD049680B782A2B84
:1054900008BF0131FBF7D4F9B0FA80F0400908BD2C
:1054A000002008BD0120704770B53A4B1A7882B0D1
:1054B000002A3ED101241C7007F012FB78B3446827
:1054C000354D23782A2B08BF013400224FF0FF30DE
:1054D000114601AB0190204606F0DAFF2B6830221E
:1054E000DB68012106462D4809F02CFB2A68019B48
:1054F000D16883B1204609F01FF92B682848DB6882
:105500000222012109F01EFB019B13B9304608F06D
:1055100073FA07F0ADFA304609F00EF9EDE71E4BCD
:1055200020481B682D22DB68214609F00BFB08F0A0
:1055300005FA194B1C481B681D22DB68012109F084
:1055400001FB08F0FBF901290C4619D107F0AEF96F
:1055500003689B6898472B682146DB6804460B224A
:10556000124809F0EFFA2B682046D96809F0E4F8F0
:105570002B680A20D96809F05FF807F0D5F9D6E75B
:1055800007F094F907F0D0F9D1E707F0CDF9FFF76C
:10559000B1FA00BF2CE90020340400202C4E010891
:1055A000604E0108644E01080C4E0108944E01083B
:1055B0004B68C0E90013186048607047D0E90032BA
:1055C00013605A60704700BF00487047A04E010842
:1055D00010B5034B03600446FFF754FB204610BD93
:1055E000DC70010810B5054B03600446FFF74AFB69
:1055F00020460421FFF77CFA204610BDDC7001082C
:10560000502970B584463BD834295BD829290AD95A
:10561000A1F12A00082831D8DFE800F0171615306C
:105620001517172E16000A2924D9A1F10B052D48AC
:10563000EDB20124AC402040F0B92B48044204D123
:105640002A482040A8B1CAB1C3B1DCE90540844270
:1056500014DADCF8105004EB840E05EB8E000134F4
:105660000026C0E90166CCF8144005F82E10C0E908
:10567000032370BD0429E6D9002AE6D1002070BDBD
:10568000A1F152000C28F7D801A454F820F000BF73
:105690004B5600084B56000879560008495600083A
:1056A0004956000847560008795600087956000800
:1056B0004B560008795600087956000879560008BC
:1056C00047560008A1F135050948EDB20124AC4068
:1056D00020400028D0D1074820400028B3D14F29CE
:1056E000B3D070BDFE1F005F00C07F0001008000CE
:1056F0000711C701F82E000A70B5C26813786E2B27
:10570000014623D0303BDAB2092A28D80026154CAE
:1057100000206FF0004E07E0CB685A1CCA605B782F
:10572000303BDAB2092A0DD8AEEB0302A4FB0252D9
:1057300000EB800CB0EBD20F03EB4C00ECDD4FF034
:10574000FF3070BD002EFCD0404270BD531CC360C2
:105750005378303BDAB2092A01D80126D7E7002076
:1057600070BD00BFCDCCCCCC10B5044651B168297A
:1057700017D02046FFF7C0FFE3681A785F2A0ED0E3
:10578000002010BDC3681A78002AF9D05A1CC260E4
:105790001B78682B05D0762BEBD00020F1E7013386
:1057A000E3602046FFF7A8FFE3681A785F2AE7D195
:1057B0000133E360012010BDC3681A785F2A01D06D
:1057C0000120704710B55A1CC2605A785F2A0446FF
:1057D00004D0FFF791FFC043C00F10BD0233C36078
:1057E000FFF78AFF002809DB092805DDE3681A783E
:1057F0005F2A03D10133E360012010BD002010BDFA
:10580000002973D038B505460C46A268012A36DC5B
:10581000D5F81C01B0F5806F31DC23780132422BC2
:10582000A2602DD8232B19D8013BDAB2222A26D820
:10583000222B24D8DFE803F03838385323232020E4
:1058400038383838383838383838383838383823ED
:10585000383838383838383838383800A3F1240C1C
:1058600023495FFA8CFC012202FA0CF21140D9B9EB
:1058700092072AD1342B02D12469002CC5D138BD1E
:10588000453BDBB2192BFAD8012202FA03F3194A7D
:105890001A404AB9184A134202D113F0180FEED039
:1058A000E468002CB1D1EAE7E1680130C5F81C01D9
:1058B0002846FFF7A5FF21692846FFF7A1FFD5F885
:1058C0001C31013BC5F81C3138BDE1680B78052B54
:1058D000EBD1D5F838310133C5F83831E5E7D5F8E3
:1058E0004431E1680133C5F84431DEE7704700BF59
:1058F000EC7DFE7FC16F000206100400034600200D
:105900002BB909E0DA682AB11B6901301BB11A789A
:10591000302AF7D0704770471846704720B909E021
:1059200039B10069013930B10378302BF8D000204B
:105930007047C06870477047F0B514465268A56854
:105940004B1C1344AB4283B00E46074611D8E568A2
:105950006DB963682068324618443946FBF730F960
:10596000D4E9003233449D5463683344636003B028
:10597000F0BDE268002AFAD155B16D00AB42FCD807
:105980002068294608F034FB38B12060A560DEE7C6
:10599000022B4FF00205F0D8F2E70190206808F0E2
:1059A0002BF8019B0122C4E90033C4E90232DEE78F
:1059B00003784B2B17D00ED8442B16D14078A0F18A
:1059C0007703012B0FD900F0DF00A0F14F00B0FAF0
:1059D00080F040097047562B05D0A3F17200B0FA51
:1059E00080F040097047012070470020704700BFD9
:1059F000D0F80031FF2B70B504460D4606D05A1C76
:105A0000C4F80021E55484F8045170BD00261946FD
:105A100080F8FF60D0E942329847D4F8281101227B
:105A200033461144C4F82811C4F80021E55484F821
:105A3000045170BDD0F810318BB15A68CB68106931
:105A4000002B0BDB20B906E03BB10069013B10B134
:105A50000278302AF8D000207047C06870470123D0
:105A6000C0F81831F7E700BF002942D038B5054625
:105A70000C462378342B1ED8342B25D8DFE803F0CE
:105A80002C242424242E2C292924242424242424B2
:105A900024242424242424242C24242424242424BE
:105AA00024242424242424242C24242424242424AE
:105AB0002424242C2900433BDBB21C2B04D80E4A9F
:105AC00022FA03F3DB0707D4E1682846FFF7CCFF8F
:105AD00018B92469002CCCD1002038BD21462846B5
:105AE000FFF7A8FF0028F7D00378302BF5D000206F
:105AF000F3E70020704700BFE30C00102DE9F047EA
